{
  "transactions": [
    {
      "hash": "0xc0618926b25523298890cb24466dda487ce16ad7071f19399b59fd7799748966",
      "transactionType": "CALL",
      "contractName": null,
      "contractAddress": "0x14dd52a43dc3f6f9004d73602fef6b23d401323c",
      "function": "transferTokens1(address,address,uint256)",
      "arguments": [
        "0x4e7C363fb15768129b2B0C824E8a6597C6B90fC1",
        "0xE5BFB7751472CF54f50ceB1D2AD4a4Ab5C95Da8c",
        "12"
      ],
      "transaction": {
        "from": "0xedc1fae1fdd602f1b1a10ffad62e87373b0f4457",
        "to": "0x14dd52a43dc3f6f9004d73602fef6b23d401323c",
        "gas": "0x1a937",
        "value": "0x0",
        "input": "0x6347e3ba0000000000000000000000004e7c363fb15768129b2b0c824e8a6597c6b90fc1000000000000000000000000e5bfb7751472cf54f50ceb1d2ad4a4ab5c95da8c000000000000000000000000000000000000000000000000000000000000000c",
        "nonce": "0x2a",
        "chainId": "0x279f"
      },
      "additionalContracts": [],
      "isFixedGasLimit": false
    },
    {
      "hash": "0x3bcdc4ce84d855e77c4017fbc3fa21b9009a74076da9fa3026f43d3c35c73033",
      "transactionType": "CALL",
      "contractName": null,
      "contractAddress": "0x14dd52a43dc3f6f9004d73602fef6b23d401323c",
      "function": "transferTokens2(address,address,uint256)",
      "arguments": [
        "0x4e7C363fb15768129b2B0C824E8a6597C6B90fC1",
        "0xE5BFB7751472CF54f50ceB1D2AD4a4Ab5C95Da8c",
        "12"
      ],
      "transaction": {
        "from": "0xedc1fae1fdd602f1b1a10ffad62e87373b0f4457",
        "to": "0x14dd52a43dc3f6f9004d73602fef6b23d401323c",
        "gas": "0xe418c",
        "value": "0x19057796d14360f",
        "input": "0x39e294600000000000000000000000004e7c363fb15768129b2b0c824e8a6597c6b90fc1000000000000000000000000e5bfb7751472cf54f50ceb1d2ad4a4ab5c95da8c000000000000000000000000000000000000000000000000000000000000000c",
        "nonce": "0x2b",
        "chainId": "0x279f"
      },
      "additionalContracts": [],
      "isFixedGasLimit": false
    }
  ],
  "receipts": [
    {
      "status": "0x1",
      "cumulativeGasUsed": "0xb27674",
      "logs": [],
      "logsBloom": "0x00000000000000000000000000000000000000000000000000000000000000000000000000000000000000000000000000000000000000000000000000000000000000000000000000000000000000000000000000000000000000000000000000000000000000000000000000000000000000000000000000000000000000000000000000000000000000000000000000000000000000000000000000000000000000000000000000000000000000000000000000000000000000000000000000000000000000000000000000000000000000000000000000000000000000000000000000000000000000000000000000000000000000000000000000000000",
      "type": "0x2",
      "transactionHash": "0xc0618926b25523298890cb24466dda487ce16ad7071f19399b59fd7799748966",
      "transactionIndex": "0x1f6",
      "blockHash": "0x33efaba55035f2224acbd6cba2c64a8aacf314f586dfd4ec43516a29f5bfb104",
      "blockNumber": "0x2f4e4f2",
      "gasUsed": "0x1a937",
      "effectiveGasPrice": "0x174876e801",
      "from": "0xedc1fae1fdd602f1b1a10ffad62e87373b0f4457",
      "to": "0x14dd52a43dc3f6f9004d73602fef6b23d401323c",
      "contractAddress": null
    },
    {
      "status": "0x1",
      "cumulativeGasUsed": "0x3822a7",
      "logs": [
        {
          "address": "0x760afe86e5de5fa0ee542fc7b7b713e1c5425701",
          "topics": [
            "0xe1fffcc4923d04b559f4d29a8bfc6cda04eb5b0d3c460751c2402c5c5cc9109c",
            "0x0000000000000000000000005f16e51e3dcb255480f090157dd01ba962a53e54"
          ],
          "data": "0x000000000000000000000000000000000000000000000000018cc9fac84db60f",
          "blockHash": "0xef4b1be964c4ae5640a5a78c4bd3436581276c5b13f0c0b41d2f52c58decd211",
          "blockNumber": "0x2f4e4f6",
          "blockTimestamp": "0x69186a4b",
          "transactionHash": "0x3bcdc4ce84d855e77c4017fbc3fa21b9009a74076da9fa3026f43d3c35c73033",
          "transactionIndex": "0x77",
          "logIndex": "0x8",
          "removed": false
        },
        {
          "address": "0x760afe86e5de5fa0ee542fc7b7b713e1c5425701",
          "topics": [
            "0xddf252ad1be2c89b69c2b068fc378daa952ba7f163c4a11628f55a4df523b3ef",
            "0x0000000000000000000000005f16e51e3dcb255480f090157dd01ba962a53e54",
            "0x000000000000000000000000289639cb51704043213d2e8806d19979ed8533e4"
          ],
          "data": "0x000000000000000000000000000000000000000000000000018cc9fac84db60f",
          "blockHash": "0xef4b1be964c4ae5640a5a78c4bd3436581276c5b13f0c0b41d2f52c58decd211",
          "blockNumber": "0x2f4e4f6",
          "blockTimestamp": "0x69186a4b",
          "transactionHash": "0x3bcdc4ce84d855e77c4017fbc3fa21b9009a74076da9fa3026f43d3c35c73033",
          "transactionIndex": "0x77",
          "logIndex": "0x9",
          "removed": false
        },
        {
          "address": "0x4e7c363fb15768129b2b0c824e8a6597c6b90fc1",
          "topics": [
            "0xddf252ad1be2c89b69c2b068fc378daa952ba7f163c4a11628f55a4df523b3ef",
            "0x00000000000000000000000014dd52a43dc3f6f9004d73602fef6b23d401323c",
            "0x000000000000000000000000259ddd199ad4ceee6e1084484ffe6527718722d4"
          ],
          "data": "0x000000000000000000000000000000000000000000000000000000000000000c",
          "blockHash": "0xef4b1be964c4ae5640a5a78c4bd3436581276c5b13f0c0b41d2f52c58decd211",
          "blockNumber": "0x2f4e4f6",
          "blockTimestamp": "0x69186a4b",
          "transactionHash": "0x3bcdc4ce84d855e77c4017fbc3fa21b9009a74076da9fa3026f43d3c35c73033",
          "transactionIndex": "0x77",
          "logIndex": "0xa",
          "removed": false
        },
        {
          "address": "0x4e7c363fb15768129b2b0c824e8a6597c6b90fc1",
          "topics": [
            "0xddf252ad1be2c89b69c2b068fc378daa952ba7f163c4a11628f55a4df523b3ef",
            "0x000000000000000000000000259ddd199ad4ceee6e1084484ffe6527718722d4",
            "0x0000000000000000000000000000000000000000000000000000000000000000"
          ],
          "data": "0x000000000000000000000000000000000000000000000000000000000000000c",
          "blockHash": "0xef4b1be964c4ae5640a5a78c4bd3436581276c5b13f0c0b41d2f52c58decd211",
          "blockNumber": "0x2f4e4f6",
          "blockTimestamp": "0x69186a4b",
          "transactionHash": "0x3bcdc4ce84d855e77c4017fbc3fa21b9009a74076da9fa3026f43d3c35c73033",
          "transactionIndex": "0x77",
          "logIndex": "0xb",
          "removed": false
        },
        {
          "address": "0x259ddd199ad4ceee6e1084484ffe6527718722d4",
          "topics": [
            "0x696de425f79f4a40bc6d2122ca50507f0efbeabbff86a84871b7196ab8ea8df7",
            "0x000000000000000000000000289639cb51704043213d2e8806d19979ed8533e4"
          ],
          "data": "0x000000000000000000000000000000000000000000000000000000000000000c",
          "blockHash": "0xef4b1be964c4ae5640a5a78c4bd3436581276c5b13f0c0b41d2f52c58decd211",
          "blockNumber": "0x2f4e4f6",
          "blockTimestamp": "0x69186a4b",
          "transactionHash": "0x3bcdc4ce84d855e77c4017fbc3fa21b9009a74076da9fa3026f43d3c35c73033",
          "transactionIndex": "0x77",
          "logIndex": "0xc",
          "removed": false
        },
        {
          "address": "0x289639cb51704043213d2e8806d19979ed8533e4",
          "topics": [
            "0x192442a2b2adb6a7948f097023cb6b57d29d3a7a5dd33e6666d33c39cc456f32",
            "0x0000000000000000000000000000000000000000000000008f90b8876dee6538",
            "0x0000000000000000000000000000000000000000000000000000000000000005"
          ],
          "data": "0x000000000000000000000000000000000000000000000000000000000000002058f68b9d2774529814c4c57a55f05e5ca9fb7656190f64db6707435533f404f70000000000000000000000000000000000000000000000001e4ba3a26233c8500000000000000000000000000000000000000000000000008f90b8876dee65380000000000000000000000000000000000000000000000000000000000000005000000000000000000000000000000000000000000000000000000000000000100000000000000000000000014dd52a43dc3f6f9004d73602fef6b23d401323c00000000000000000000000000000000000000000000000000000000000001a000000000000000000000000000000000000000000000000000000000000001c00000000000000000000000000000000000000000000000000000000000000200000000000000000000000000760afe86e5de5fa0ee542fc7b7b713e1c5425701000000000000000000000000000000000000000000000000018cc9fac84db60f00000000000000000000000000000000000000000000000000401592ce1f5d8a000000000000000000000000000000000000000000000000000000000000028000000000000000000000000000000000000000000000000000000000000000000000000000000000000000000000000000000000000000000000000000000020000000000000000000000000e5bfb7751472cf54f50ceb1d2ad4a4ab5c95da8c0000000000000000000000000000000000000000000000000000000000000044181dcf100000000000000000000000000000000000000000000000000000000000030d4000000000000000000000000000000000000000000000000000000000000000000000000000000000000000000000000000000000000000000000000000000000000000000000000000000000000000000000000000000000000000010000000000000000000000000000000000000000000000000000000000000020000000000000000000000000259ddd199ad4ceee6e1084484ffe6527718722d400000000000000000000000000000000000000000000000000000000000000a000000000000000000000000000000000000000000000000000000000000000e0000000000000000000000000000000000000000000000000000000000000000c0000000000000000000000000000000000000000000000000000000000000120000000000000000000000000000000000000000000000000000000000000002000000000000000000000000032289cd7f1b971ffb67af168aec8fafe1036f64f0000000000000000000000000000000000000000000000000000000000000020000000000000000000000000000000000000000000000000000000000000000600000000000000000000000000000000000000000000000000000000000000200000000000000000000000000000000000000000000000000000000000015f90",
          "blockHash": "0xef4b1be964c4ae5640a5a78c4bd3436581276c5b13f0c0b41d2f52c58decd211",
          "blockNumber": "0x2f4e4f6",
          "blockTimestamp": "0x69186a4b",
          "transactionHash": "0x3bcdc4ce84d855e77c4017fbc3fa21b9009a74076da9fa3026f43d3c35c73033",
          "transactionIndex": "0x77",
          "logIndex": "0xd",
          "removed": false
        },
        {
          "address": "0x14dd52a43dc3f6f9004d73602fef6b23d401323c",
          "topics": [
            "0xe113f15b772baf56f3782cf5e2d531cbab80c9350d469231284d329c4fb91d1c",
            "0x58f68b9d2774529814c4c57a55f05e5ca9fb7656190f64db6707435533f404f7",
            "0x0000000000000000000000000000000000000000000000008f90b8876dee6538",
            "0x000000000000000000000000e5bfb7751472cf54f50ceb1d2ad4a4ab5c95da8c"
          ],
          "data": "0x0000000000000000000000004e7c363fb15768129b2b0c824e8a6597c6b90fc1000000000000000000000000000000000000000000000000000000000000000c",
          "blockHash": "0xef4b1be964c4ae5640a5a78c4bd3436581276c5b13f0c0b41d2f52c58decd211",
          "blockNumber": "0x2f4e4f6",
          "blockTimestamp": "0x69186a4b",
          "transactionHash": "0x3bcdc4ce84d855e77c4017fbc3fa21b9009a74076da9fa3026f43d3c35c73033",
          "transactionIndex": "0x77",
          "logIndex": "0xe",
          "removed": false
        }
      ],
      "logsBloom": "0x00000240000004000000000000000000000000001000000000000000000000101010008000000000002000000000000000000000008020000000000000000000000010108000028000100008000000000000000400000000000800008000200200000000060000000000000000800802000000000000004000000010000040004000000000000400400000000000001000020801200012000000000000000000000000000000010000000000000000000002000000000000000000001000000000000002080000000000000000000200000000010400000100000000000120000000000000000000040000000000000000100000010000400000000000000000",
      "type": "0x2",
      "transactionHash": "0x3bcdc4ce84d855e77c4017fbc3fa21b9009a74076da9fa3026f43d3c35c73033",
      "transactionIndex": "0x77",
      "blockHash": "0xef4b1be964c4ae5640a5a78c4bd3436581276c5b13f0c0b41d2f52c58decd211",
      "blockNumber": "0x2f4e4f6",
      "gasUsed": "0xe418c",
      "effectiveGasPrice": "0x174876e801",
      "from": "0xedc1fae1fdd602f1b1a10ffad62e87373b0f4457",
      "to": "0x14dd52a43dc3f6f9004d73602fef6b23d401323c",
      "contractAddress": null
    }
  ],
  "libraries": [],
  "pending": [],
  "returns": {},
  "timestamp": 1763207756,
  "chain": 10143,
  "commit": "87baebe"
}