{
  "transactions": [
    {
      "hash": "0x37fcc084c3be27a0b7c1ecb24bf20b952e8b103bf68ed7ede351091ea05f97b1",
      "transactionType": "CALL",
      "contractName": null,
      "contractAddress": "0x4e7c363fb15768129b2b0c824e8a6597c6b90fc1",
      "function": "approve(address,uint256)",
      "arguments": [
        "0x14dD52a43dc3f6F9004d73602FeF6B23D401323C",
        "12"
      ],
      "transaction": {
        "from": "0xedc1fae1fdd602f1b1a10ffad62e87373b0f4457",
        "to": "0x4e7c363fb15768129b2b0c824e8a6597c6b90fc1",
        "gas": "0xfcee",
        "value": "0x0",
        "input": "0x095ea7b300000000000000000000000014dd52a43dc3f6f9004d73602fef6b23d401323c000000000000000000000000000000000000000000000000000000000000000c",
        "nonce": "0x1f",
        "chainId": "0x279f"
      },
      "additionalContracts": [],
      "isFixedGasLimit": false
    },
    {
      "hash": "0x588449fe97c2276e7d690cc7f608fdeb2d9643119551f73e7a3873535129a724",
      "transactionType": "CALL",
      "contractName": null,
      "contractAddress": "0x14dd52a43dc3f6f9004d73602fef6b23d401323c",
      "function": "depositToken(address,uint256)",
      "arguments": [
        "0x4e7C363fb15768129b2B0C824E8a6597C6B90fC1",
        "12"
      ],
      "transaction": {
        "from": "0xedc1fae1fdd602f1b1a10ffad62e87373b0f4457",
        "to": "0x14dd52a43dc3f6f9004d73602fef6b23d401323c",
        "gas": "0x142f4",
        "value": "0x0",
        "input": "0x338b5dea0000000000000000000000004e7c363fb15768129b2b0c824e8a6597c6b90fc1000000000000000000000000000000000000000000000000000000000000000c",
        "nonce": "0x20",
        "chainId": "0x279f"
      },
      "additionalContracts": [],
      "isFixedGasLimit": false
    },
    {
      "hash": null,
      "transactionType": "CALL",
      "contractName": null,
      "contractAddress": "0x14dd52a43dc3f6f9004d73602fef6b23d401323c",
      "function": "transferTokens1(address,address,uint256)",
      "arguments": [
        "0x4e7C363fb15768129b2B0C824E8a6597C6B90fC1",
        "0xE5BFB7751472CF54f50ceB1D2AD4a4Ab5C95Da8c",
        "12"
      ],
      "transaction": {
        "from": "0xedc1fae1fdd602f1b1a10ffad62e87373b0f4457",
        "to": "0x14dd52a43dc3f6f9004d73602fef6b23d401323c",
        "gas": "0x14a7e",
        "value": "0x0",
        "input": "0x6347e3ba0000000000000000000000004e7c363fb15768129b2b0c824e8a6597c6b90fc1000000000000000000000000e5bfb7751472cf54f50ceb1d2ad4a4ab5c95da8c000000000000000000000000000000000000000000000000000000000000000c",
        "nonce": "0x21",
        "chainId": "0x279f"
      },
      "additionalContracts": [],
      "isFixedGasLimit": false
    }
  ],
  "receipts": [
    {
      "status": "0x1",
      "cumulativeGasUsed": "0xbbb968",
      "logs": [
        {
          "address": "0x4e7c363fb15768129b2b0c824e8a6597c6b90fc1",
          "topics": [
            "0x8c5be1e5ebec7d5bd14f71427d1e84f3dd0314c0f7b2291e5b200ac8c7c3b925",
            "0x000000000000000000000000edc1fae1fdd602f1b1a10ffad62e87373b0f4457",
            "0x00000000000000000000000014dd52a43dc3f6f9004d73602fef6b23d401323c"
          ],
          "data": "0x000000000000000000000000000000000000000000000000000000000000000c",
          "blockHash": "0xf6a3f4365309e2b02f816731940c944566a590f2f75efff5af5603332150c4c6",
          "blockNumber": "0x2f4c8ce",
          "blockTimestamp": "0x69185ed7",
          "transactionHash": "0x37fcc084c3be27a0b7c1ecb24bf20b952e8b103bf68ed7ede351091ea05f97b1",
          "transactionIndex": "0x1f9",
          "logIndex": "0xd",
          "removed": false
        }
      ],
      "logsBloom": "0x00000000000000000000000000000000000000001000000000000000000000000000000000000000000000000000000000000000000000000000000000200000000000000000000000000000000000000000000000000000000000000000000204000000000000000000000000000000000000000000004000000000000000000000000000000000000000000000000000000000000000000000000000000000020000000000010000000000000000000002000000000000000000000000000000000000000000000000000000000000000000000000000080000000000000000010800000000000040000000000000000000000000000000000000000000000",
      "type": "0x2",
      "transactionHash": "0x37fcc084c3be27a0b7c1ecb24bf20b952e8b103bf68ed7ede351091ea05f97b1",
      "transactionIndex": "0x1f9",
      "blockHash": "0xf6a3f4365309e2b02f816731940c944566a590f2f75efff5af5603332150c4c6",
      "blockNumber": "0x2f4c8ce",
      "gasUsed": "0xfcee",
      "effectiveGasPrice": "0x174876e801",
      "from": "0xedc1fae1fdd602f1b1a10ffad62e87373b0f4457",
      "to": "0x4e7c363fb15768129b2b0c824e8a6597c6b90fc1",
      "contractAddress": null
    }
  ],
  "libraries": [],
  "pending": [],
  "returns": {},
  "timestamp": 1763204826,
  "chain": 10143,
  "commit": "87baebe"
}