{
  "transactions": [
    {
      "hash": "0xa5b2639dd34d4a86036f3f07947ae14c69869c270f5b881a701f7287423df386",
      "transactionType": "CALL",
      "contractName": null,
      "contractAddress": "0x14dd52a43dc3f6f9004d73602fef6b23d401323c",
      "function": "transferTokens1(address,address,uint256)",
      "arguments": [
        "0x4e7C363fb15768129b2B0C824E8a6597C6B90fC1",
        "0xE5BFB7751472CF54f50ceB1D2AD4a4Ab5C95Da8c",
        "12"
      ],
      "transaction": {
        "from": "0xedc1fae1fdd602f1b1a10ffad62e87373b0f4457",
        "to": "0x14dd52a43dc3f6f9004d73602fef6b23d401323c",
        "gas": "0x14a7e",
        "value": "0x0",
        "input": "0x6347e3ba0000000000000000000000004e7c363fb15768129b2b0c824e8a6597c6b90fc1000000000000000000000000e5bfb7751472cf54f50ceb1d2ad4a4ab5c95da8c000000000000000000000000000000000000000000000000000000000000000c",
        "nonce": "0x28",
        "chainId": "0x279f"
      },
      "additionalContracts": [],
      "isFixedGasLimit": false
    },
    {
      "hash": "0x180f403a78552e4430fe5f3ad012c1cbab2b989422776fd76f417d1da6361eb8",
      "transactionType": "CALL",
      "contractName": null,
      "contractAddress": "0x14dd52a43dc3f6f9004d73602fef6b23d401323c",
      "function": "transferTokens2(address,address,uint256)",
      "arguments": [
        "0x4e7C363fb15768129b2B0C824E8a6597C6B90fC1",
        "0xE5BFB7751472CF54f50ceB1D2AD4a4Ab5C95Da8c",
        "12"
      ],
      "transaction": {
        "from": "0xedc1fae1fdd602f1b1a10ffad62e87373b0f4457",
        "to": "0x14dd52a43dc3f6f9004d73602fef6b23d401323c",
        "gas": "0x62d78",
        "value": "0x19045764f438622",
        "input": "0x39e294600000000000000000000000004e7c363fb15768129b2b0c824e8a6597c6b90fc1000000000000000000000000e5bfb7751472cf54f50ceb1d2ad4a4ab5c95da8c000000000000000000000000000000000000000000000000000000000000000c",
        "nonce": "0x29",
        "chainId": "0x279f"
      },
      "additionalContracts": [],
      "isFixedGasLimit": false
    }
  ],
  "receipts": [
    {
      "status": "0x1",
      "cumulativeGasUsed": "0x14f7ffd",
      "logs": [
        {
          "address": "0x4e7c363fb15768129b2b0c824e8a6597c6b90fc1",
          "topics": [
            "0x8c5be1e5ebec7d5bd14f71427d1e84f3dd0314c0f7b2291e5b200ac8c7c3b925",
            "0x00000000000000000000000014dd52a43dc3f6f9004d73602fef6b23d401323c",
            "0x0000000000000000000000005f16e51e3dcb255480f090157dd01ba962a53e54"
          ],
          "data": "0xffffffffffffffffffffffffffffffffffffffffffffffffffffffffffffffff",
          "blockHash": "0xf1bd51723c56871e0c4c7b1af71270b8c832aca5993721003125659a5b8a14b9",
          "blockNumber": "0x2f4d3e1",
          "blockTimestamp": "0x69186359",
          "transactionHash": "0xa5b2639dd34d4a86036f3f07947ae14c69869c270f5b881a701f7287423df386",
          "transactionIndex": "0x3e7",
          "logIndex": "0xd",
          "removed": false
        }
      ],
      "logsBloom": "0x00000000000000000000000000000000000000001000000000000000000000000000008000000000000000000000000000000000000000000000000000200000000000000000000000000000000000000000000000000000000000000000000200000000000000000000000000000000000000000000004000000000000040000000000000000400000000000000000000000000000000000000000000000000020000000000010000000000000000000002000000000000000000000000000000000000000000000000000000000000000000000000000000000000000000000010000000000000040000000000000000000000000000000000000000000000",
      "type": "0x2",
      "transactionHash": "0xa5b2639dd34d4a86036f3f07947ae14c69869c270f5b881a701f7287423df386",
      "transactionIndex": "0x3e7",
      "blockHash": "0xf1bd51723c56871e0c4c7b1af71270b8c832aca5993721003125659a5b8a14b9",
      "blockNumber": "0x2f4d3e1",
      "gasUsed": "0x14a7e",
      "effectiveGasPrice": "0x174876e801",
      "from": "0xedc1fae1fdd602f1b1a10ffad62e87373b0f4457",
      "to": "0x14dd52a43dc3f6f9004d73602fef6b23d401323c",
      "contractAddress": null
    }
  ],
  "libraries": [],
  "pending": [],
  "returns": {},
  "timestamp": 1763205981,
  "chain": 10143,
  "commit": "87baebe"
}