{
  "transactions": [
    {
      "hash": "0xdc908dc93c922e5baf6fafac75c6d1f2f6fbb292918628ddb08a9e1f2ffdc763",
      "transactionType": "CALL",
      "contractName": null,
      "contractAddress": "0x760afe86e5de5fa0ee542fc7b7b713e1c5425701",
      "function": "transfer(address,uint256)",
      "arguments": [
        "0xAFA487451B7ccc1fF410f98dc886e5e1C2696118",
        "1000000000000000000"
      ],
      "transaction": {
        "from": "0xc10538992ba1a9513d4437b34d09ec4a614501a9",
        "to": "0x760afe86e5de5fa0ee542fc7b7b713e1c5425701",
        "gas": "0xfd5a",
        "value": "0x0",
        "input": "0xa9059cbb000000000000000000000000afa487451b7ccc1ff410f98dc886e5e1c26961180000000000000000000000000000000000000000000000000de0b6b3a7640000",
        "nonce": "0x14",
        "chainId": "0x279f"
      },
      "additionalContracts": [],
      "isFixedGasLimit": false
    },
    {
      "hash": "0x1c42a64a53f86693f5b92b73f423bd6787b86d993934ac840f9399b0889e3795",
      "transactionType": "CALL",
      "contractName": null,
      "contractAddress": "0xafa487451b7ccc1ff410f98dc886e5e1c2696118",
      "function": "transferTokens(address,address,uint256)",
      "arguments": [
        "0x4e7C363fb15768129b2B0C824E8a6597C6B90fC1",
        "0xE5BFB7751472CF54f50ceB1D2AD4a4Ab5C95Da8c",
        "12"
      ],
      "transaction": {
        "from": "0xc10538992ba1a9513d4437b34d09ec4a614501a9",
        "to": "0xafa487451b7ccc1ff410f98dc886e5e1c2696118",
        "gas": "0x6a7fc",
        "value": "0x0",
        "input": "0xa64b6e5f0000000000000000000000004e7c363fb15768129b2b0c824e8a6597c6b90fc1000000000000000000000000e5bfb7751472cf54f50ceb1d2ad4a4ab5c95da8c000000000000000000000000000000000000000000000000000000000000000c",
        "nonce": "0x15",
        "chainId": "0x279f"
      },
      "additionalContracts": [],
      "isFixedGasLimit": false
    }
  ],
  "receipts": [
    {
      "status": "0x1",
      "cumulativeGasUsed": "0xa97255",
      "logs": [
        {
          "address": "0x760afe86e5de5fa0ee542fc7b7b713e1c5425701",
          "topics": [
            "0xddf252ad1be2c89b69c2b068fc378daa952ba7f163c4a11628f55a4df523b3ef",
            "0x000000000000000000000000c10538992ba1a9513d4437b34d09ec4a614501a9",
            "0x000000000000000000000000afa487451b7ccc1ff410f98dc886e5e1c2696118"
          ],
          "data": "0x0000000000000000000000000000000000000000000000000de0b6b3a7640000",
          "blockHash": "0xe51954af476287e348507dbd5d0c3a592cca94cee102df3ffbb14a886faa4a9b",
          "blockNumber": "0x2f49dbc",
          "blockTimestamp": "0x69184d53",
          "transactionHash": "0xdc908dc93c922e5baf6fafac75c6d1f2f6fbb292918628ddb08a9e1f2ffdc763",
          "transactionIndex": "0x1f9",
          "logIndex": "0x5",
          "removed": false
        }
      ],
      "logsBloom": "0x00000000000060000000000000000000000000400000000000000000000000000000000000000000000000000000000000000000000000000000000000000000000000008000000000000008000008000000000000000000002800000000000000000000000000000000000000000000000000000000000000000010000000000000000000000000400000000000000000000000000000000000000000000000800000000000000000000000000000000000000000000000000000000000000000000002000000000000000000000000000000000000000000000000000000000000000000000000000000000000000000000000000000000000000000000000",
      "type": "0x2",
      "transactionHash": "0xdc908dc93c922e5baf6fafac75c6d1f2f6fbb292918628ddb08a9e1f2ffdc763",
      "transactionIndex": "0x1f9",
      "blockHash": "0xe51954af476287e348507dbd5d0c3a592cca94cee102df3ffbb14a886faa4a9b",
      "blockNumber": "0x2f49dbc",
      "gasUsed": "0xfd5a",
      "effectiveGasPrice": "0x174876e801",
      "from": "0xc10538992ba1a9513d4437b34d09ec4a614501a9",
      "to": "0x760afe86e5de5fa0ee542fc7b7b713e1c5425701",
      "contractAddress": null
    }
  ],
  "libraries": [],
  "pending": [],
  "returns": {},
  "timestamp": 1763200341,
  "chain": 10143,
  "commit": "87baebe"
}