{
  "transactions": [
    {
      "hash": "0xe18964638ff490f13f129536d2aca170a048d5a6da5d956a026ce03bc0b1e3a6",
      "transactionType": "CALL",
      "contractName": null,
      "contractAddress": "0xafa487451b7ccc1ff410f98dc886e5e1c2696118",
      "function": "transferTokens(address,address,uint256)",
      "arguments": [
        "0x4e7C363fb15768129b2B0C824E8a6597C6B90fC1",
        "0xE5BFB7751472CF54f50ceB1D2AD4a4Ab5C95Da8c",
        "12"
      ],
      "transaction": {
        "from": "0xedc1fae1fdd602f1b1a10ffad62e87373b0f4457",
        "to": "0xafa487451b7ccc1ff410f98dc886e5e1c2696118",
        "gas": "0x6a7fc",
        "value": "0x0",
        "input": "0xa64b6e5f0000000000000000000000004e7c363fb15768129b2b0c824e8a6597c6b90fc1000000000000000000000000e5bfb7751472cf54f50ceb1d2ad4a4ab5c95da8c000000000000000000000000000000000000000000000000000000000000000c",
        "nonce": "0x1d",
        "chainId": "0x279f"
      },
      "additionalContracts": [],
      "isFixedGasLimit": false
    }
  ],
  "receipts": [],
  "libraries": [],
  "pending": [],
  "returns": {},
  "timestamp": 1763202140,
  "chain": 10143,
  "commit": "87baebe"
}