{
  "transactions": [
    {
      "hash": null,
      "transactionType": "CALL",
      "contractName": null,
      "contractAddress": "0x14dd52a43dc3f6f9004d73602fef6b23d401323c",
      "function": "transferTokens1(address,address,uint256)",
      "arguments": [
        "0x4e7C363fb15768129b2B0C824E8a6597C6B90fC1",
        "0xE5BFB7751472CF54f50ceB1D2AD4a4Ab5C95Da8c",
        "12"
      ],
      "transaction": {
        "from": "0xedc1fae1fdd602f1b1a10ffad62e87373b0f4457",
        "to": "0x14dd52a43dc3f6f9004d73602fef6b23d401323c",
        "gas": "0x547b8b9c80",
        "value": "0x0",
        "input": "0x6347e3ba0000000000000000000000004e7c363fb15768129b2b0c824e8a6597c6b90fc1000000000000000000000000e5bfb7751472cf54f50ceb1d2ad4a4ab5c95da8c000000000000000000000000000000000000000000000000000000000000000c",
        "nonce": "0x2a",
        "chainId": "0x279f"
      },
      "additionalContracts": [],
      "isFixedGasLimit": false
    },
    {
      "hash": null,
      "transactionType": "CALL",
      "contractName": null,
      "contractAddress": "0x14dd52a43dc3f6f9004d73602fef6b23d401323c",
      "function": "transferTokens2(address,address,uint256)",
      "arguments": [
        "0x4e7C363fb15768129b2B0C824E8a6597C6B90fC1",
        "0xE5BFB7751472CF54f50ceB1D2AD4a4Ab5C95Da8c",
        "12"
      ],
      "transaction": {
        "from": "0xedc1fae1fdd602f1b1a10ffad62e87373b0f4457",
        "to": "0x14dd52a43dc3f6f9004d73602fef6b23d401323c",
        "gas": "0x2d5198d9a00",
        "value": "0x1904bdb6bb22a88",
        "input": "0x39e294600000000000000000000000004e7c363fb15768129b2b0c824e8a6597c6b90fc1000000000000000000000000e5bfb7751472cf54f50ceb1d2ad4a4ab5c95da8c000000000000000000000000000000000000000000000000000000000000000c",
        "nonce": "0x2b",
        "chainId": "0x279f"
      },
      "additionalContracts": [],
      "isFixedGasLimit": false
    }
  ],
  "receipts": [],
  "libraries": [],
  "pending": [],
  "returns": {},
  "timestamp": 1763207722,
  "chain": 10143,
  "commit": "87baebe"
}