{
  "transactions": [
    {
      "hash": "0x2c29b3f37563a41a3da193782f8c008f11e41be557719fa907a5219a6b076447",
      "transactionType": "CALL",
      "contractName": null,
      "contractAddress": "0x14dd52a43dc3f6f9004d73602fef6b23d401323c",
      "function": "transferTokens1(address,address,uint256)",
      "arguments": [
        "0x4e7C363fb15768129b2B0C824E8a6597C6B90fC1",
        "0xE5BFB7751472CF54f50ceB1D2AD4a4Ab5C95Da8c",
        "112"
      ],
      "transaction": {
        "from": "0xedc1fae1fdd602f1b1a10ffad62e87373b0f4457",
        "to": "0x14dd52a43dc3f6f9004d73602fef6b23d401323c",
        "gas": "0x1a937",
        "value": "0x0",
        "input": "0x6347e3ba0000000000000000000000004e7c363fb15768129b2b0c824e8a6597c6b90fc1000000000000000000000000e5bfb7751472cf54f50ceb1d2ad4a4ab5c95da8c0000000000000000000000000000000000000000000000000000000000000070",
        "nonce": "0x2c",
        "chainId": "0x279f"
      },
      "additionalContracts": [],
      "isFixedGasLimit": false
    },
    {
      "hash": "0x1c89aca2ffdef251ee6eab3014b06e8d43d282eddd54706995d99effea750286",
      "transactionType": "CALL",
      "contractName": null,
      "contractAddress": "0x14dd52a43dc3f6f9004d73602fef6b23d401323c",
      "function": "transferTokens2(address,address,uint256)",
      "arguments": [
        "0x4e7C363fb15768129b2B0C824E8a6597C6B90fC1",
        "0xE5BFB7751472CF54f50ceB1D2AD4a4Ab5C95Da8c",
        "112"
      ],
      "transaction": {
        "from": "0xedc1fae1fdd602f1b1a10ffad62e87373b0f4457",
        "to": "0x14dd52a43dc3f6f9004d73602fef6b23d401323c",
        "gas": "0xc86a0",
        "value": "0x1905f1efbb419ff",
        "input": "0x39e294600000000000000000000000004e7c363fb15768129b2b0c824e8a6597c6b90fc1000000000000000000000000e5bfb7751472cf54f50ceb1d2ad4a4ab5c95da8c0000000000000000000000000000000000000000000000000000000000000070",
        "nonce": "0x2d",
        "chainId": "0x279f"
      },
      "additionalContracts": [],
      "isFixedGasLimit": false
    }
  ],
  "receipts": [
    {
      "status": "0x1",
      "cumulativeGasUsed": "0x208d62",
      "logs": [],
      "logsBloom": "0x00000000000000000000000000000000000000000000000000000000000000000000000000000000000000000000000000000000000000000000000000000000000000000000000000000000000000000000000000000000000000000000000000000000000000000000000000000000000000000000000000000000000000000000000000000000000000000000000000000000000000000000000000000000000000000000000000000000000000000000000000000000000000000000000000000000000000000000000000000000000000000000000000000000000000000000000000000000000000000000000000000000000000000000000000000000",
      "type": "0x2",
      "transactionHash": "0x2c29b3f37563a41a3da193782f8c008f11e41be557719fa907a5219a6b076447",
      "transactionIndex": "0x4",
      "blockHash": "0xca932870c21978f82c4647a7411fafd633bae659b8e32f27655c430b72749e02",
      "blockNumber": "0x2f4e792",
      "gasUsed": "0x1a937",
      "effectiveGasPrice": "0x174876e801",
      "from": "0xedc1fae1fdd602f1b1a10ffad62e87373b0f4457",
      "to": "0x14dd52a43dc3f6f9004d73602fef6b23d401323c",
      "contractAddress": null
    },
    {
      "status": "0x1",
      "cumulativeGasUsed": "0x55db58",
      "logs": [
        {
          "address": "0x760afe86e5de5fa0ee542fc7b7b713e1c5425701",
          "topics": [
            "0xe1fffcc4923d04b559f4d29a8bfc6cda04eb5b0d3c460751c2402c5c5cc9109c",
            "0x0000000000000000000000005f16e51e3dcb255480f090157dd01ba962a53e54"
          ],
          "data": "0x000000000000000000000000000000000000000000000000018cd1a056ed99ff",
          "blockHash": "0xde2f23745f75cf8f31391369481b884acfe135bad0f6f80fafb5277cae675fbe",
          "blockNumber": "0x2f4e797",
          "blockTimestamp": "0x69186b5d",
          "transactionHash": "0x1c89aca2ffdef251ee6eab3014b06e8d43d282eddd54706995d99effea750286",
          "transactionIndex": "0x84",
          "logIndex": "0x12",
          "removed": false
        },
        {
          "address": "0x760afe86e5de5fa0ee542fc7b7b713e1c5425701",
          "topics": [
            "0xddf252ad1be2c89b69c2b068fc378daa952ba7f163c4a11628f55a4df523b3ef",
            "0x0000000000000000000000005f16e51e3dcb255480f090157dd01ba962a53e54",
            "0x000000000000000000000000289639cb51704043213d2e8806d19979ed8533e4"
          ],
          "data": "0x000000000000000000000000000000000000000000000000018cd1a056ed99ff",
          "blockHash": "0xde2f23745f75cf8f31391369481b884acfe135bad0f6f80fafb5277cae675fbe",
          "blockNumber": "0x2f4e797",
          "blockTimestamp": "0x69186b5d",
          "transactionHash": "0x1c89aca2ffdef251ee6eab3014b06e8d43d282eddd54706995d99effea750286",
          "transactionIndex": "0x84",
          "logIndex": "0x13",
          "removed": false
        },
        {
          "address": "0x4e7c363fb15768129b2b0c824e8a6597c6b90fc1",
          "topics": [
            "0xddf252ad1be2c89b69c2b068fc378daa952ba7f163c4a11628f55a4df523b3ef",
            "0x00000000000000000000000014dd52a43dc3f6f9004d73602fef6b23d401323c",
            "0x000000000000000000000000259ddd199ad4ceee6e1084484ffe6527718722d4"
          ],
          "data": "0x0000000000000000000000000000000000000000000000000000000000000070",
          "blockHash": "0xde2f23745f75cf8f31391369481b884acfe135bad0f6f80fafb5277cae675fbe",
          "blockNumber": "0x2f4e797",
          "blockTimestamp": "0x69186b5d",
          "transactionHash": "0x1c89aca2ffdef251ee6eab3014b06e8d43d282eddd54706995d99effea750286",
          "transactionIndex": "0x84",
          "logIndex": "0x14",
          "removed": false
        },
        {
          "address": "0x4e7c363fb15768129b2b0c824e8a6597c6b90fc1",
          "topics": [
            "0xddf252ad1be2c89b69c2b068fc378daa952ba7f163c4a11628f55a4df523b3ef",
            "0x000000000000000000000000259ddd199ad4ceee6e1084484ffe6527718722d4",
            "0x0000000000000000000000000000000000000000000000000000000000000000"
          ],
          "data": "0x0000000000000000000000000000000000000000000000000000000000000070",
          "blockHash": "0xde2f23745f75cf8f31391369481b884acfe135bad0f6f80fafb5277cae675fbe",
          "blockNumber": "0x2f4e797",
          "blockTimestamp": "0x69186b5d",
          "transactionHash": "0x1c89aca2ffdef251ee6eab3014b06e8d43d282eddd54706995d99effea750286",
          "transactionIndex": "0x84",
          "logIndex": "0x15",
          "removed": false
        },
        {
          "address": "0x259ddd199ad4ceee6e1084484ffe6527718722d4",
          "topics": [
            "0x696de425f79f4a40bc6d2122ca50507f0efbeabbff86a84871b7196ab8ea8df7",
            "0x000000000000000000000000289639cb51704043213d2e8806d19979ed8533e4"
          ],
          "data": "0x0000000000000000000000000000000000000000000000000000000000000070",
          "blockHash": "0xde2f23745f75cf8f31391369481b884acfe135bad0f6f80fafb5277cae675fbe",
          "blockNumber": "0x2f4e797",
          "blockTimestamp": "0x69186b5d",
          "transactionHash": "0x1c89aca2ffdef251ee6eab3014b06e8d43d282eddd54706995d99effea750286",
          "transactionIndex": "0x84",
          "logIndex": "0x16",
          "removed": false
        },
        {
          "address": "0x289639cb51704043213d2e8806d19979ed8533e4",
          "topics": [
            "0x192442a2b2adb6a7948f097023cb6b57d29d3a7a5dd33e6666d33c39cc456f32",
            "0x0000000000000000000000000000000000000000000000008f90b8876dee6538",
            "0x0000000000000000000000000000000000000000000000000000000000000006"
          ],
          "data": "0x000000000000000000000000000000000000000000000000000000000000002006b62f98783d8efa92a602662ecde1d25e2fad80b2d6df67e3c82141531db9190000000000000000000000000000000000000000000000001e4ba3a26233c8500000000000000000000000000000000000000000000000008f90b8876dee65380000000000000000000000000000000000000000000000000000000000000006000000000000000000000000000000000000000000000000000000000000000200000000000000000000000014dd52a43dc3f6f9004d73602fef6b23d401323c00000000000000000000000000000000000000000000000000000000000001a000000000000000000000000000000000000000000000000000000000000001c00000000000000000000000000000000000000000000000000000000000000200000000000000000000000000760afe86e5de5fa0ee542fc7b7b713e1c5425701000000000000000000000000000000000000000000000000018cd1a056ed99ff000000000000000000000000000000000000000000000000004016cef6f6f057000000000000000000000000000000000000000000000000000000000000028000000000000000000000000000000000000000000000000000000000000000000000000000000000000000000000000000000000000000000000000000000020000000000000000000000000e5bfb7751472cf54f50ceb1d2ad4a4ab5c95da8c0000000000000000000000000000000000000000000000000000000000000044181dcf100000000000000000000000000000000000000000000000000000000000030d4000000000000000000000000000000000000000000000000000000000000000000000000000000000000000000000000000000000000000000000000000000000000000000000000000000000000000000000000000000000000000010000000000000000000000000000000000000000000000000000000000000020000000000000000000000000259ddd199ad4ceee6e1084484ffe6527718722d400000000000000000000000000000000000000000000000000000000000000a000000000000000000000000000000000000000000000000000000000000000e000000000000000000000000000000000000000000000000000000000000000700000000000000000000000000000000000000000000000000000000000000120000000000000000000000000000000000000000000000000000000000000002000000000000000000000000032289cd7f1b971ffb67af168aec8fafe1036f64f0000000000000000000000000000000000000000000000000000000000000020000000000000000000000000000000000000000000000000000000000000000600000000000000000000000000000000000000000000000000000000000000200000000000000000000000000000000000000000000000000000000000015f90",
          "blockHash": "0xde2f23745f75cf8f31391369481b884acfe135bad0f6f80fafb5277cae675fbe",
          "blockNumber": "0x2f4e797",
          "blockTimestamp": "0x69186b5d",
          "transactionHash": "0x1c89aca2ffdef251ee6eab3014b06e8d43d282eddd54706995d99effea750286",
          "transactionIndex": "0x84",
          "logIndex": "0x17",
          "removed": false
        },
        {
          "address": "0x14dd52a43dc3f6f9004d73602fef6b23d401323c",
          "topics": [
            "0xe113f15b772baf56f3782cf5e2d531cbab80c9350d469231284d329c4fb91d1c",
            "0x06b62f98783d8efa92a602662ecde1d25e2fad80b2d6df67e3c82141531db919",
            "0x0000000000000000000000000000000000000000000000008f90b8876dee6538",
            "0x000000000000000000000000e5bfb7751472cf54f50ceb1d2ad4a4ab5c95da8c"
          ],
          "data": "0x0000000000000000000000004e7c363fb15768129b2b0c824e8a6597c6b90fc10000000000000000000000000000000000000000000000000000000000000070",
          "blockHash": "0xde2f23745f75cf8f31391369481b884acfe135bad0f6f80fafb5277cae675fbe",
          "blockNumber": "0x2f4e797",
          "blockTimestamp": "0x69186b5d",
          "transactionHash": "0x1c89aca2ffdef251ee6eab3014b06e8d43d282eddd54706995d99effea750286",
          "transactionIndex": "0x84",
          "logIndex": "0x18",
          "removed": false
        }
      ],
      "logsBloom": "0x00000240000004000000000008000000000000001000000000000000000000101010008000000000002000000000000000000000008420000000000000000000000000108000028000100008000000000000000400000000000800008000200200000000060000000000000000000802000000000000004000000010000040004000000400000400400000000000000000020001000012000000000000000000000000000000010000000000000000000002000000000000000000081000000000000002080000000000000000000300000000000400000100000020000120000000000000000000040000000000000000100000010000400000000000000000",
      "type": "0x2",
      "transactionHash": "0x1c89aca2ffdef251ee6eab3014b06e8d43d282eddd54706995d99effea750286",
      "transactionIndex": "0x84",
      "blockHash": "0xde2f23745f75cf8f31391369481b884acfe135bad0f6f80fafb5277cae675fbe",
      "blockNumber": "0x2f4e797",
      "gasUsed": "0xc86a0",
      "effectiveGasPrice": "0x174876e801",
      "from": "0xedc1fae1fdd602f1b1a10ffad62e87373b0f4457",
      "to": "0x14dd52a43dc3f6f9004d73602fef6b23d401323c",
      "contractAddress": null
    }
  ],
  "libraries": [],
  "pending": [],
  "returns": {},
  "timestamp": 1763208031,
  "chain": 10143,
  "commit": "87baebe"
}